{
  "_format": "hh-sol-artifact-1",
  "contractName": "CICDLogger",
  "sourceName": "contracts/OpsLedger.sol",
  "abi": [
    {
      "anonymous": false,
      "inputs": [
        {
          "indexed": true,
          "internalType": "uint256",
          "name": "timestamp",
          "type": "uint256"
        },
        {
          "indexed": false,
          "internalType": "string",
          "name": "buildId",
          "type": "string"
        },
        {
          "indexed": false,
          "internalType": "string",
          "name": "status",
          "type": "string"
        },
        {
          "indexed": false,
          "internalType": "string",
          "name": "developer",
          "type": "string"
        }
      ],
      "name": "NewBuild",
      "type": "event"
    },
    {
      "inputs": [
        {
          "internalType": "uint256",
          "name": "",
          "type": "uint256"
        }
      ],
      "name": "events",
      "outputs": [
        {
          "internalType": "uint256",
          "name": "timestamp",
          "type": "uint256"
        },
        {
          "internalType": "string",
          "name": "buildId",
          "type": "string"
        },
        {
          "internalType": "string",
          "name": "status",
          "type": "string"
        },
        {
          "internalType": "string",
          "name": "developer",
          "type": "string"
        }
      ],
      "stateMutability": "view",
      "type": "function"
    },
    {
      "inputs": [],
      "name": "getEvents",
      "outputs": [
        {
          "components": [
            {
              "internalType": "uint256",
              "name": "timestamp",
              "type": "uint256"
            },
            {
              "internalType": "string",
              "name": "buildId",
              "type": "string"
            },
            {
              "internalType": "string",
              "name": "status",
              "type": "string"
            },
            {
              "internalType": "string",
              "name": "developer",
              "type": "string"
            }
          ],
          "internalType": "struct CICDLogger.BuildEvent[]",
          "name": "",
          "type": "tuple[]"
        }
      ],
      "stateMutability": "view",
      "type": "function"
    },
    {
      "inputs": [
        {
          "internalType": "string",
          "name": "_buildId",
          "type": "string"
        },
        {
          "internalType": "string",
          "name": "_status",
          "type": "string"
        },
        {
          "internalType": "string",
          "name": "_developer",
          "type": "string"
        }
      ],
      "name": "logBuild",
      "outputs": [],
      "stateMutability": "nonpayable",
      "type": "function"
    }
  ],
  "bytecode": "0x6080604052348015600f57600080fd5b50610ddf8061001f6000396000f3fe608060405234801561001057600080fd5b50600436106100415760003560e01c80630b79143014610046578063268da6d414610079578063404aa8f914610095575b600080fd5b610060600480360381019061005b91906105cf565b6100b3565b604051610070949392919061069b565b60405180910390f35b610093600480360381019061008e919061082a565b61028b565b005b61009d610366565b6040516100aa9190610a5d565b60405180910390f35b600081815481106100c357600080fd5b90600052602060002090600402016000915090508060000154908060010180546100ec90610aae565b80601f016020809104026020016040519081016040528092919081815260200182805461011890610aae565b80156101655780601f1061013a57610100808354040283529160200191610165565b820191906000526020600020905b81548152906001019060200180831161014857829003601f168201915b50505050509080600201805461017a90610aae565b80601f01602080910402602001604051908101604052809291908181526020018280546101a690610aae565b80156101f35780601f106101c8576101008083540402835291602001916101f3565b820191906000526020600020905b8154815290600101906020018083116101d657829003601f168201915b50505050509080600301805461020890610aae565b80601f016020809104026020016040519081016040528092919081815260200182805461023490610aae565b80156102815780601f1061025657610100808354040283529160200191610281565b820191906000526020600020905b81548152906001019060200180831161026457829003601f168201915b5050505050905084565b600060405180608001604052804281526020018581526020018481526020018381525090806001815401808255809150506001900390600052602060002090600402016000909190919091506000820151816000015560208201518160010190816102f69190610c8b565b50604082015181600201908161030c9190610c8b565b5060608201518160030190816103229190610c8b565b505050427f9ebfc8e75497f9dcb75551319aba65db3348b99cd1c022ab0d4ca34352174dc184848460405161035993929190610d5d565b60405180910390a2505050565b60606000805480602002602001604051908101604052809291908181526020016000905b8282101561057c5783829060005260206000209060040201604051806080016040529081600082015481526020016001820180546103c790610aae565b80601f01602080910402602001604051908101604052809291908181526020018280546103f390610aae565b80156104405780601f1061041557610100808354040283529160200191610440565b820191906000526020600020905b81548152906001019060200180831161042357829003601f168201915b5050505050815260200160028201805461045990610aae565b80601f016020809104026020016040519081016040528092919081815260200182805461048590610aae565b80156104d25780601f106104a7576101008083540402835291602001916104d2565b820191906000526020600020905b8154815290600101906020018083116104b557829003601f168201915b505050505081526020016003820180546104eb90610aae565b80601f016020809104026020016040519081016040528092919081815260200182805461051790610aae565b80156105645780601f1061053957610100808354040283529160200191610564565b820191906000526020600020905b81548152906001019060200180831161054757829003601f168201915b5050505050815250508152602001906001019061038a565b50505050905090565b6000604051905090565b600080fd5b600080fd5b6000819050919050565b6105ac81610599565b81146105b757600080fd5b50565b6000813590506105c9816105a3565b92915050565b6000602082840312156105e5576105e461058f565b5b60006105f3848285016105ba565b91505092915050565b61060581610599565b82525050565b600081519050919050565b600082825260208201905092915050565b60005b8381101561064557808201518184015260208101905061062a565b60008484015250505050565b6000601f19601f8301169050919050565b600061066d8261060b565b6106778185610616565b9350610687818560208601610627565b61069081610651565b840191505092915050565b60006080820190506106b060008301876105fc565b81810360208301526106c28186610662565b905081810360408301526106d68185610662565b905081810360608301526106ea8184610662565b905095945050505050565b600080fd5b600080fd5b7f4e487b7100000000000000000000000000000000000000000000000000000000600052604160045260246000fd5b61073782610651565b810181811067ffffffffffffffff82111715610756576107556106ff565b5b80604052505050565b6000610769610585565b9050610775828261072e565b919050565b600067ffffffffffffffff821115610795576107946106ff565b5b61079e82610651565b9050602081019050919050565b82818337600083830152505050565b60006107cd6107c88461077a565b61075f565b9050828152602081018484840111156107e9576107e86106fa565b5b6107f48482856107ab565b509392505050565b600082601f830112610811576108106106f5565b5b81356108218482602086016107ba565b91505092915050565b6000806000606084860312156108435761084261058f565b5b600084013567ffffffffffffffff81111561086157610860610594565b5b61086d868287016107fc565b935050602084013567ffffffffffffffff81111561088e5761088d610594565b5b61089a868287016107fc565b925050604084013567ffffffffffffffff8111156108bb576108ba610594565b5b6108c7868287016107fc565b9150509250925092565b600081519050919050565b600082825260208201905092915050565b6000819050602082019050919050565b61090681610599565b82525050565b600082825260208201905092915050565b60006109288261060b565b610932818561090c565b9350610942818560208601610627565b61094b81610651565b840191505092915050565b600060808301600083015161096e60008601826108fd565b5060208301518482036020860152610986828261091d565b915050604083015184820360408601526109a0828261091d565b915050606083015184820360608601526109ba828261091d565b9150508091505092915050565b60006109d38383610956565b905092915050565b6000602082019050919050565b60006109f3826108d1565b6109fd81856108dc565b935083602082028501610a0f856108ed565b8060005b85811015610a4b5784840389528151610a2c85826109c7565b9450610a37836109db565b925060208a01995050600181019050610a13565b50829750879550505050505092915050565b60006020820190508181036000830152610a7781846109e8565b905092915050565b7f4e487b7100000000000000000000000000000000000000000000000000000000600052602260045260246000fd5b60006002820490506001821680610ac657607f821691505b602082108103610ad957610ad8610a7f565b5b50919050565b60008190508160005260206000209050919050565b60006020601f8301049050919050565b600082821b905092915050565b600060088302610b417fffffffffffffffffffffffffffffffffffffffffffffffffffffffffffffffff82610b04565b610b4b8683610b04565b95508019841693508086168417925050509392505050565b6000819050919050565b6000610b88610b83610b7e84610599565b610b63565b610599565b9050919050565b6000819050919050565b610ba283610b6d565b610bb6610bae82610b8f565b848454610b11565b825550505050565b600090565b610bcb610bbe565b610bd6818484610b99565b505050565b5b81811015610bfa57610bef600082610bc3565b600181019050610bdc565b5050565b601f821115610c3f57610c1081610adf565b610c1984610af4565b81016020851015610c28578190505b610c3c610c3485610af4565b830182610bdb565b50505b505050565b600082821c905092915050565b6000610c6260001984600802610c44565b1980831691505092915050565b6000610c7b8383610c51565b9150826002028217905092915050565b610c948261060b565b67ffffffffffffffff811115610cad57610cac6106ff565b5b610cb78254610aae565b610cc2828285610bfe565b600060209050601f831160018114610cf55760008415610ce3578287015190505b610ced8582610c6f565b865550610d55565b601f198416610d0386610adf565b60005b82811015610d2b57848901518255600182019150602085019450602081019050610d06565b86831015610d485784890151610d44601f891682610c51565b8355505b6001600288020188555050505b505050505050565b60006060820190508181036000830152610d778186610662565b90508181036020830152610d8b8185610662565b90508181036040830152610d9f8184610662565b905094935050505056fea2646970667358221220398cec17bc74aae82bfb5d4e86b495db3680f66571a2ccedd8356e49f4c7571864736f6c634300081b0033",
  "linkReferences": {},
  "deployedLinkReferences": {}
}